:020000021000EC
:10F000000C9446F80C9465F80C9465F80C9465F82B
:10F010000C9465F80C9465F80C9465F80C9465F8FC
:10F020000C9465F80C9465F80C9465F80C9465F8EC
:10F030000C9465F80C9465F80C9465F80C9465F8DC
:10F040000C9465F80C9465F80C9465F80C9465F8CC
:10F050000C9465F80C9465F80C9465F80C9465F8BC
:10F060000C9465F80C9465F80C9465F80C9465F8AC
:10F070000C9465F80C9465F80C9465F80C9465F89C
:10F080000C9465F80C9465F80C9465F811241FBE77
:10F09000CFEFD0E4DEBFCDBF11E0A0E0B1E0EAECFD
:10F0A000F7EF01E00BBF02C007900D92A230B1074D
:10F0B000D9F712E0A2E0B1E001C01D92AD30B10776
:10F0C000E1F70E947EF90C94E3FB0C9400F8909118
:10F0D0000501913019F0923041F008959091C000EF
:10F0E00095FFFCCF8093C60008959091C80095FFCE
:10F0F000FCCF8093CE000895CF93982F959595954A
:10F1000095959595905DC82FCF70CA304CF4C05D31
:10F11000892F0E9467F88C2F0E9467F8CF9108957D
:10F12000C95A892F0E9467F88C2F0E9467F8CF91E7
:10F130000895CF92DF92EF92FF9280910501813086
:10F1400069F1823031F080E0FF90EF90DF90CF9056
:10F150000895CC24DD2476018091C80087FD17C076
:10F160000894C11CD11CE11CF11C81E2C81681EA83
:10F17000D80687E0E80680E0F80670F3E091020127
:10F18000F091030109958091C80087FFE9CF809134
:10F19000CE00FF90EF90DF90CF900895CC24DD2437
:10F1A00076018091C00087FD17C00894C11CD11C56
:10F1B000E11CF11C81E2C81681EAD80687E0E80666
:10F1C00080E0F80670F3E0910201F09103010995E7
:10F1D0008091C00087FFE9CF8091C600FF90EF903B
:10F1E000DF90CF900895CF930E9499F8C82F0E9486
:10F1F00067F8C13634F4C0330CF0C0538C2FCF9174
:10F200000895C7558C2FCF910895CF930E94F3F89E
:10F21000C82F0E94F3F8C295C07F8C0FCF9108953C
:10F2200020910501882339F0213031F0223061F03E
:10F2300081508823C9F708959091C00097FFFCCFB3
:10F240009091C6008150F5CF9091C80097FFFCCFF8
:10F250009091CE008150EDCFCF93C82F0E9499F8A6
:10F26000803281F0809104018F5F809304018530AA
:10F2700011F0CF910895E0910201F09103010995F9
:10F28000CF91089584E10E9467F88C2F0E9467F85F
:10F2900080E10E9467F8EDCF0E9499F8803271F00A
:10F2A000809104018F5F80930401853009F00895F7
:10F2B000E0910201F09103010995089584E10E9413
:10F2C00067F880E10E9467F8089528EC30E0882311
:10F2D000A1F02F9A48EE53E0F9013197F1F7415030
:10F2E0005040D1F72F9848EE53E0F9013197F1F7EC
:10F2F00041505040D1F7815061F70895000081E0FE
:10F30000809305018CE08093C4001092C500109298
:10F31000C00086E08093C20088E18093C100279AF4
:10F3200081E00E9465F90E9499F88033B1F1813340
:10F33000B9F1803409F454C0813409F45AC08234DC
:10F3400009F469C0853409F46CC0803531F1823527
:10F3500021F1813511F1853509F469C0863509F44B
:10F3600071C0843609F47AC0843709F4E2C0853765
:10F3700009F440C1863709F44AC0809104018F5FC7
:10F3800080930401853079F6E0910201F091030148
:10F3900009950E9499F8803351F60E944CF9C3CF29
:10F3A0000E9499F8803249F784E10E9467F881E46D
:10F3B0000E9467F886E50E9467F882E50E9467F878
:10F3C00080E20E9467F889E40E9467F883E50E9462
:10F3D00067F880E50E9467F880E10E9467F8A3CF94
:10F3E0000E9499F88638C8F20E9499F80E944CF958
:10F3F0009ACF0E9499F8803809F415C1813809F430
:10F4000016C1823809F417C1883909F408C180E0AF
:10F410000E942CF988CF84E10E9410F90E944CF9D7
:10F4200082CF85E00E9410F90E944CF97CCF0E94A7
:10F4300099F8809306010E9499F8809307010E9431
:10F440004CF971CF0E9499F8803309F406C183E02A
:10F450000E9410F980E00E942CF965CF0E9499F873
:10F46000809309020E9499F88093080280910C020F
:10F470008E7F80930C020E9499F8853409F4FEC0B7
:10F4800080910802909109020097A1F068E0E62EB1
:10F4900061E0F62E00E010E00E9499F8F7018193F8
:10F4A0007F010F5F1F4F809108029091090208179A
:10F4B000190790F30E9499F8803209F05ECF80918D
:10F4C0000C0280FFEBC02091060130910701220F52
:10F4D000331F309307012093060180910802909119
:10F4E00009020097F9F048E0E42E41E0F42E00E034
:10F4F00010E0F70161917F01C9010E94D5FB2091C5
:10F500000601309107012F5F3F4F30930701209391
:10F5100006010F5F1F4F80910802909109020817A2
:10F52000190738F384E10E9467F880E10E9467F8C8
:10F53000FACE0E9499F8809309020E9499F880936C
:10F540000802809106019091070120910C0297FD1D
:10F55000A1C02D7F20930C02880F991F9093070163
:10F56000809306010E9499F8853409F48DC080913A
:10F570000C028E7F80930C020E9499F8803209F071
:10F58000D2CE84E10E9467F880910802909109022E
:10F59000009709F440C000E010E0809106019091CE
:10F5A000070116C0FC0184910E9467F88091060152
:10F5B00090910701019690930701809306010F5FD8
:10F5C0001F4F20910802309109020217130718F506
:10F5D00020910C0220FD33C021FFE4CFA0E0B0E079
:10F5E00080509040AF4FBF4FABBFFC0187910E944E
:10F5F00067F8DCCF0E9499F8803209F0BECE84E132
:10F600000E9467F88EE10E9467F887E90E9467F818
:10F6100085E00E9467F880E10E9467F884CE83E06D
:10F620000E942CF980CE82E00E942CF97CCE81E0F1
:10F630000E942CF978CE80E10E942CF974CE0E94B1
:10F64000CDFB0E9467F88091060190910701019619
:10F650009093070180930601B2CF0E9499F80E940F
:10F6600099F8082F0E9499F8002309F489C0013005
:10F6700009F48AC085E00E942CF955CE80910C02D5
:10F68000816080930C02FCCE80910C02816080939B
:10F690000C0272CF226020930C025ECF8091070192
:10F6A00087FD76C010920B0280E08BBF809106012F
:10F6B00090910701880F991F90930701809306018D
:10F6C0008091080280FF09C0809108029091090290
:10F6D00001969093090280930802F894F999FECF5D
:10F6E0001127E0910601F0910701C8E0D1E0809177
:10F6F000080290910902103091F4009157000170B6
:10F700000130D9F303E000935700E89500915700CA
:10F7100001700130D9F301E100935700E895099099
:10F7200019900091570001700130D9F301E0009366
:10F730005700E8951395103898F01127009157005D
:10F7400001700130D9F305E000935700E89500916E
:10F75000570001700130D9F301E100935700E8959B
:10F760003296029709F0C7CF103011F00296E5CF1C
:10F77000112484E10E9467F880E10E9467F8D3CDEC
:10F780008EE10E942CF9CFCD87E90E942CF9CBCDD8
:10F79000F1E0F0930B0281E088CFF999FECF92BDA2
:10F7A00081BDF89A992780B50895262FF999FECF43
:10F7B0001FBA92BD81BD20BD0FB6F894FA9AF99A8E
:0AF7C0000FBE01960895F894FFCFE4
:02F7CA008000BD
:040000031000F000F9
:00000001FF
