:100000000C9434000C9451000C9451000C94510049
:100010000C9451000C9451000C9451000C9451001C
:100020000C9451000C9451000C9451000C9451000C
:100030000C9451000C9451000C9451000C945100FC
:100040000C9451000C9451000C9451000C945100EC
:100050000C9451000C9451000C9451000C945100DC
:100060000C9451000C94510011241FBECFEFD8E026
:10007000DEBFCDBF12E0A0E0B1E0E0EBF0E102C0F6
:1000800005900D92A632B107D9F712E0A6E2B2E0D0
:1000900001C01D92A234B107E1F70E947A040C94CA
:1000A00056080C940000BC018091B9008E7F8093AB
:1000B000B9008091B9008D7F8093B90080ED97E001
:1000C0000E940705603130F0862F90E040979595AB
:1000D0008795682F6093B800089584E690E00E94A9
:1000E0005300ECEBF0E080818460808308953C9ABB
:1000F00084EA8093BC00089584E98093BC0008954D
:10010000882329F08091BC008F70806C04C080919E
:10011000BC008F7080688093BC0008958091BB0004
:1001200008958091B90008950BC020E00000000000
:1001300000000000000000002F5F2A35B9F701978A
:10014000009799F708951F93182F81E090E00E947F
:1001500094003C9A1093BB0084E88093BC001F91EC
:1001600008959093C5008093C4001092C00088E168
:100170008093C10086E08093C20087E192E0909373
:100180003F0280933E02089580E684B980E187B9FA
:100190008EEF8AB980E388B983E390E00E94B100D2
:1001A00008951F93182F8A3019F48DE00E94D10012
:1001B0008091C00085FFFCCF1093C60080E090E0E6
:1001C0001F910895982F8091C00085FFFCCF9093D8
:1001D000C600089520E030E002C02F5F3F4F8091BD
:1001E000BC0087FF04C02935310544F003C02A351F
:1001F000310599F780E091E00E946D050895BF9266
:10020000CF92DF92EF92FF920F931F93082F3C9AA9
:100210003CEBC32ED12C14EAD6011C930E94EA00B9
:100220008EEE0E94A3000E94EA00802F0E94A3008D
:100230000E94EA003C9AF60110838FEE0E94A30010
:100240000E94EA008FEF0E9480000E94EA000BEB00
:1002500010E0D801BC900E94EA0080E00E9480007B
:100260000E94EA00F801E0800E94EA0084E9D601D9
:100270008C931B2D00E0FF2400D000D0EDB7FEB71B
:10028000319683E191E0ADB7BEB712969C938E9301
:100290001197B28213820E94580588E191E0EDB770
:1002A000FEB792838183F482E3820E9458050E296F
:1002B0001F290F900F900F900F90C8011F910F9161
:1002C000FF90EF90DF90CF90BF9008950F931F9312
:1002D00000D08DE191E0EDB7FEB7928381830E945B
:1002E00058053C9A0CEB10E084EAF80180830F90EB
:1002F0000F900E94EA008EEE0E94A3000E94EA0086
:1003000084EF0E94A3000E94EA0084E30E94A300FD
:100310000E94EA0084E9F80180838AE090E00E946C
:10032000940086EF0E94FF0040E050E0BC01CA014B
:100330001F910F9108950F931F933C9A0CEB10E0BF
:1003400084EAF80180830E94EA008EEE0E94A300F6
:100350000E94EA0084EF0E94A3000E94EA008EE25D
:100360000E94A3000E94EA0084E9F80180838AE0E9
:1003700090E00E94940086EF0E94FF009C014427B9
:1003800037FD4095542FB901CA011F910F9108956F
:100390002F923F924F925F926F927F928F929F9295
:1003A000AF92BF92CF92DF92EF92FF920F931F9383
:1003B000DF93CF9300D000D000D0CDB7DEB74C0193
:1003C0007E836D830E949B010E949B017B018C01B7
:1003D0000E9466010E9466011B012C0180912E0281
:1003E00090912F02A0E0B0E0E81AF90A0A0B1B0B6B
:1003F000209130023091310240E050E0C801B70155
:100400000E94E8047B018C013FE015950795F79465
:10041000E7943A95D1F760913802709139028827B4
:1004200077FD8095982F2BE0660F771F881F991F07
:100430002A95D1F72091340230913502442737FDB7
:100440004095542F2E0D3F1D401F511F0E943D050A
:1004500059016A01AE0CBF1CC01ED11E88E090E09D
:10046000A0E0B0E0A80EB91ECA1EDB1ED601C50171
:1004700014E0B595A795979587951A95D1F7F4014E
:1004800080839183A283B38388E590EFAFEFBFEFC2
:10049000A80EB91ECA1EDB1EC601B501A601950134
:1004A0000E94E8043B014C01ACE09594879477945A
:1004B0006794AA95D1F720913A0230913B024427E4
:1004C00037FD4095542FC601B5010E94E8047B0119
:1004D0008C01FDE015950795F794E794FA95D1F70F
:1004E00082E090E0A0E0B0E0E80EF91E0A1F1B1FBA
:1004F00020912C0230912D02442737FD4095542F36
:10050000C401B3010E94E804BC01992777FD9095CE
:10051000892FE60EF71E081F191F62E01595079533
:10052000F794E7946A95D1F780E090E8A0E0B0E016
:10053000E80EF91E0A1F1B1F209136023091370268
:1005400040E050E0C801B7010E94E804DC01CB01A3
:100550005FE0B695A795979587955A95D1F78983CA
:100560009A83AB83BC83E0902A02F0902B02002791
:10057000F7FC0095102F42E0EE0CFF1C001F111F2E
:100580004A95D1F782E090E0A0E0B0E0E80EF91ED5
:100590000A1F1B1F2091320230913302442737FD7E
:1005A0004095542FC601B5010E94E8043BE09595A3
:1005B0008795779567953A95D1F7E60EF71E081F50
:1005C000191F2091260230912702442737FD4095BC
:1005D000542FC401B3010E94E8042BE09595879540
:1005E000779567952A95D1F7E60EF71E081F191F14
:1005F000C801B70124E030E040E050E00E943D0532
:10060000221A330A440A550AC201B10120E533EC2B
:1006100040E050E00E94E80497FD0FC0660F771F8E
:10062000881F991F29813A814B815C810E941B059B
:10063000C901DA015C016D010CC029813A814B814D
:100640005C810E941B0559016A01AA0CBB1CCC1CD1
:10065000DD1C5527D7FC5A954D2D3C2D2B2DCA015D
:10066000B9010E94E8042EED3BE040E050E00E941A
:10067000E8047B018C01C601B50123E433EE4FEFA2
:100680005FEF0E94E804BC01992777FD9095892FC0
:100690006153714F8F4F9F4F78011127F7FC1095D1
:1006A000012F6E0D7F1D801F911F44E0959587954A
:1006B000779567954A95D1F76A0D7B1D8C1D9D1D19
:1006C000AD81BE816D937D938D939C9313972696F8
:1006D0000FB6F894DEBF0FBECDBFCF91DF911F9153
:1006E0000F91FF90EF90DF90CF90BF90AF909F90D1
:1006F0008F907F906F905F904F903F902F900895D4
:1007000082E291E00E946D058CE391E00E946D050C
:100710008AEA0E94FF0090932B0280932A028CEABF
:100720000E94FF0090933302809332028EEA0E946F
:10073000FF0090933B0280933A0280EB0E94FF00FF
:10074000909337028093360282EB0E94FF009093D1
:1007500031028093300284EB0E94FF0090932F02BD
:1007600080932E0286EB0E94FF0090932D028093CF
:100770002C0288EB0E94FF009093270280932602B0
:100780008AEB0E94FF0090932902809328028CEB51
:100790000E94FF0090933902809338028EEB0E94F2
:1007A000FF00909335028093340200D000D085E59D
:1007B00091E0EDB7FEB79283818380912A029091F8
:1007C0002B02948383830E94580580E691E0EDB765
:1007D000FEB7928381838091320290913302948399
:1007E00083830E9458058BE691E0EDB7FEB79283B4
:1007F000818380913A0290913B02948383830E948B
:10080000580586E791E0EDB7FEB79283818380912A
:10081000360290913702948383830E94580581E8C1
:1008200091E0EDB7FEB79283818380913002909181
:100830003102948383830E9458058CE891E0EDB7E0
:10084000FEB79283818380912E0290912F02948330
:1008500083830E94580587E991E0EDB7FEB7928344
:10086000818380912C0290912D02948383830E9436
:10087000580581EA91E0EDB7FEB7928381838091BC
:10088000260290912702948383830E9458058BEA65
:1008900091E0EDB7FEB79283818380912802909119
:1008A0002902948383830E94580585EB91E0EDB77C
:1008B000FEB79283818380913802909139029483AC
:1008C00083830E9458058FEB91E0EDB7FEB79283CA
:1008D00081838091340290913502948383830E94B6
:1008E00058050F900F900F900F9089EC91E00E94A7
:1008F0006D0508958F929F92AF92BF92CF92DF9233
:10090000EF92FF920F931F93DF93CF93CDB7DEB794
:1009100028970FB6F894DEBF0FBECDBF19821A829A
:100920001B821C821D821E821F8218860E94C400A8
:100930000E946D0084E690E00E9494000E94800373
:1009400065E0862E912C8C0E9D1E5E010894A11CE4
:10095000B11C53EEC52E51E0D52E44E0E42E42E00A
:10096000F42EC501B4010E94C80100D000D000D00F
:10097000EDB7FEB7D282C18289819A81AB81BC81F9
:1009800083839483A583B6830E945805EDB7FEB791
:10099000F282E1828D819E81AF81B88583839483C9
:1009A000A583B6830E94580500E010E08DB79EB77E
:1009B00006960FB6F8949EBF0FBE8DBF88EE93E0EB
:1009C0000E9494000F5F1F4F05301105B9F7C9CF82
:1009D000629FD001739FF001829FE00DF11D649F23
:1009E000E00DF11D929FF00D839FF00D749FF00DAF
:1009F000659FF00D9927729FB00DE11DF91F639F50
:100A0000B00DE11DF91FBD01CF0111240895AA1BEE
:100A1000BB1B51E107C0AA1FBB1FA617B70710F0E9
:100A2000A61BB70B881F991F5A95A9F7809590951B
:100A3000BC01CD010895A1E21A2EAA1BBB1BFD012A
:100A40000DC0AA1FBB1FEE1FFF1FA217B307E407AD
:100A5000F50720F0A21BB30BE40BF50B661F771F05
:100A6000881F991F1A9469F76095709580959095E5
:100A70009B01AC01BD01CF01089597FB092E05260E
:100A80000ED057FD04D0D7DF0AD0001C38F45095A3
:100A90004095309521953F4F4F4F5F4F0895F6F7A2
:100AA00090958095709561957F4F8F4F9F4F0895DA
:100AB000A0E0B0E0EEE5F5E00C942F08FE013596DD
:100AC0006191719180913E0290913F02AF010E942D
:100AD000A2052096E2E00C944B080F931F93CF934E
:100AE000DF938C01E0913E02F0913F02838181FF10
:100AF00021C0C0E0D0E00DC0E0913E02F0913F0285
:100B000020853185BF01F9010995892B11F0CFEFBF
:100B1000DFEFF80181918F01882371F7E0913E02A8
:100B2000F0913F02208531858AE0BF01F9010995E6
:100B3000892B11F0CFEFDFEFCE01DF91CF911F9125
:100B40000F910895ABE0B0E0E8EAF5E00C941F08DF
:100B50003C012B015A01FC0117821682838181FD21
:100B600003C06FEF7FEFC6C19AE0892E1E01089483
:100B7000211C311CF3012381F20123FD859123FF08
:100B800081912F01882309F4B2C1853239F423FD04
:100B9000859123FF81912F01853229F490E0B301E3
:100BA0000E949507E7CF982FFF24EE249924FFE1B8
:100BB000FF15D0F09B3269F09C3228F4903259F046
:100BC000933291F40EC09D3249F0903369F441E0C4
:100BD00024C052E0F52A84E0F82A28C098E0F92AD7
:100BE00025C0E0E1FE2A22C0F7FC29C0892F8053EE
:100BF0008A3070F4F6FE05C0989C902C1124980E53
:100C000015C0E89CE02C1124E80EF0E2FF2A0EC08B
:100C10009E3229F4F6FC6BC140E4F42A07C09C36EE
:100C200019F450E8F52A02C0983649F4F20123FD80
:100C3000959123FF91912F01992309F0B8CF892F26
:100C40008554833018F08052833038F444E050E00B
:100C5000A40EB51E5FE359830FC0933631F093376E
:100C600079F0933509F056C020C0F5018081898361
:100C700042E050E0A40EB51E610101E010E012C098
:100C8000F501C080D180F6FC03C06FEF7FEF02C09A
:100C9000692D70E042E050E0A40EB51EC6010E942E
:100CA0008A078C015FE7F52214C0F501C080D1806E
:100CB000F6FC03C06FEF7FEF02C0692D70E042E0E9
:100CC00050E0A40EB51EC6010E947F078C0150E8BB
:100CD000F52AF3FE07C01AC080E290E0B3010E943B
:100CE0009507EA948E2D90E008171907A8F30EC017
:100CF000F601F7FC8591F7FE81916F0190E0B30159
:100D00000E949507E110EA94015010400115110569
:100D100079F7EAC0943611F0993669F5F7FE08C004
:100D2000F501208131814281538184E090E00AC045
:100D3000F501808191819C01442737FD4095542F16
:100D400082E090E0A80EB91E9FE6F92257FF09C085
:100D500050954095309521953F4F4F4F5F4FE0E8BC
:100D6000FE2ACA01B901A1012AE030E00E94C107B0
:100D7000D82ED21840C0953729F41F2D1F7E2AE0A7
:100D800030E01DC01F2D197F9F3661F0903720F491
:100D9000983509F0ACC00FC0903739F0983709F09A
:100DA000A6C004C028E030E00AC0106114FD146041
:100DB00020E130E004C014FD166020E132E017FFAE
:100DC00008C0F501608171818281938144E050E027
:100DD00008C0F50180819181BC0180E090E042E093
:100DE00050E0A40EB51EA1010E94C107D82ED21852
:100DF0008FE7F82EF122F6FE0BC05EEFF522D91434
:100E000038F4F4FE07C0F2FC05C08FEEF82202C0F1
:100E10001D2D01C0192DF4FE0DC0FE01ED0DF11DBB
:100E20008081803319F499EEF92208C01F5FF2FE29
:100E300005C003C08F2D867809F01F5F0F2DF3FCCE
:100E400014C0F0FE0FC01E1510F09D2C0BC09D2C81
:100E50009E0C911A1E2D06C080E290E0B3010E9404
:100E600095071F5F1E15C0F304C01E1510F4E11A8C
:100E700001C0EE2404FF0FC080E390E0B3010E94A4
:100E8000950702FF1DC001FD03C088E790E00EC07A
:100E900088E590E00BC0802F867891F001FF02C0BA
:100EA0008BE201C080E2F7FC8DE290E0B3010E948A
:100EB000950706C080E390E0B3010E9495079A94DD
:100EC000D914C0F3DA94F101ED0DF11D808190E0A9
:100ED000B3010E949507DD20A9F706C080E290E0EB
:100EE000B3010E949507EA94EE20C1F743CEF301C7
:100EF00066817781CB012B96E2E10C943B08FC01E3
:100F00000590615070400110D8F7809590958E0F34
:100F10009F1F0895FC016150704001900110D8F7A7
:100F2000809590958E0F9F1F08950F931F93CF93D9
:100F3000DF938C01EB018B8181FF1BC082FF0DC011
:100F40002E813F818C819D812817390764F4E881C7
:100F5000F9810193F983E88306C0E885F985802F3C
:100F60000995892B31F48E819F8101969F838E8311
:100F700002C00FEF1FEFC801DF91CF911F910F91BA
:100F80000895FA01AA27283051F1203181F1E8941F
:100F90006F936E7F6E5F7F4F8F4F9F4FAF4FB1E06C
:100FA0003ED0B4E03CD0670F781F891F9A1FA11D67
:100FB000680F791F8A1F911DA11D6A0F711D811D68
:100FC000911DA11D20D009F468943F912AE0269F2D
:100FD00011243019305D3193DEF6CF010895462F8C
:100FE0004770405D4193B3E00FD0C9F7F6CF462F6D
:100FF0004F70405D4A3318F0495D31FD40524193D6
:1010000002D0A9F7EACFB4E0A69597958795779592
:101010006795BA95C9F700976105710508959B0119
:10102000AC010A2E06945795479537952795BA95A2
:10103000C9F7620F731F841F951FA01D08952F927B
:101040003F924F925F926F927F928F929F92AF9258
:10105000BF92CF92DF92EF92FF920F931F93CF93A5
:10106000DF93CDB7DEB7CA1BDB0B0FB6F894DEBF3C
:101070000FBECDBF09942A88398848885F846E8462
:101080007D848C849B84AA84B984C884DF80EE80AC
:10109000FD800C811B81AA81B981CE0FD11D0FB6B5
:1010A000F894DEBF0FBECDBFED010895F894FFCFD9
:1010B000636F6D706C6574652074696D6564206F15
:1010C00075740025783B200025780D0A0070723A6F
:1010D00020000A43616C6962726174696F6E204915
:1010E0006E666F726D6174696F6E3A002D2D2D2DD5
:1010F0002D2D2D2D2D2D2D2D2D2D2D2D2D2D2D2D20
:101100002D2D2D2D0009414331203D2025640A005D
:1011100009414332203D2025640A00094143332020
:101120003D2025640A0009414334203D2025640AFE
:101130000009414335203D2025640A00094143361A
:10114000203D2025640A00094231203D2025640A03
:1011500000094232203D2025640A00094D42203D0D
:101160002025640A00094D43203D2025640A00091A
:101170004D44203D2025640A002D2D2D2D2D2D2D93
:101180002D2D2D2D2D2D2D2D2D2D2D2D2D2D2D2D8F
:101190002D0A0054656D70657261747572653A2030
:1011A000256C642028696E20302E3120646567200C
:1011B00043290A0050726573737572653A20256C75
:1011C000642050610A0A000000000200000000D103
:0611D00000000000000019
:00000001FF
